:100000000C942A000C9434000C9434000C943400AA
:100010000C9434000C9434000C9434000C94340090
:100020000C9434000C9434000C9434000C94340080
:100030000C9434000C9434000C9434000C94340070
:100040000C9434000C9434000C9434000C94340060
:100050000C94340011241FBECFE5D8E0DEBFCDBF25
:100060000E94FE000C9451030C940000959A8FE9B5
:1000700099E10197F1F700C0000000000000959899
:10008000089517BA979A9298C79B04C00E943600A9
:10009000C799FCCF8FEF87BB0895CF93C82F0E94DD
:1000A0004100C8BB9798929A0E94360018BACF9127
:1000B0000895CF93C82F0E944100C8BB82B38B77AD
:1000C00082BB0E94360018BACF9108958CE30E943B
:1000D000590087EC90E00197F1F700C000008EE036
:1000E0000E94590087EC90E00197F1F700C00000F2
:1000F0000895CF93DF93EC018881882331F0219616
:100100000E944D0089918111FBCFDF91CF9108951D
:100110004F925F926F927F928F929F92AF92BF9217
:10012000EF92FF920F931F93CF93DF93CDB7DEB77C
:100130006E970FB6F894DEBF0FBECDBF2B013C010A
:100140007A010E949F014B015C014AE08E010F5F22
:100150001F4FB801C4010E941C03B401990C880B05
:10016000990B0E94D7019B01AC01C301B2010E940F
:100170001B01F80101900020E9F731972EE230E0F1
:10018000318320831E141F046CF400E010E020E093
:1001900030E040E251E40E94A4020F5F1F4FE016DE
:1001A000F106A9F70E9488010E949F01DC01CB01A2
:1001B0004AE0BE01605F7F4F0E941C03BE01605F8A
:1001C0007F4FCE0101960E941103CE0101960E943D
:1001D00079006E960FB6F894DEBF0FBECDBFDF91EB
:1001E000CF911F910F91FF90EF90BF90AF909F9094
:1001F0008F907F906F905F904F90089581B3846A45
:1002000081BB8FE59AEE0197F1F700C0000081E015
:100210000E9459008FE39FE10197F1F700C00000B1
:100220000E94660042E050E068EB7EE88CE394E4D4
:100230000E948800FFCF5058BB27AA270E94330195
:100240000C9452020E94440238F00E944B0220F0AB
:1002500039F49F3F19F426F40C9441020EF4E09512
:10026000E7FB0C941202E92F0E94630258F3BA17BD
:10027000620773078407950720F079F4A6F50C94BC
:100280009D020EF4E0950B2EBA2FA02D0B01B901A3
:1002900090010C01CA01A0011124FF27591B99F0FC
:1002A000593F50F4503E68F11A16F040A22F232F08
:1002B000342F4427585FF3CF469537952795A79558
:1002C000F0405395C9F77EF41F16BA0B620B730BFF
:1002D000840BBAF09150A1F0FF0FBB1F661F771F70
:1002E000881FC2F70EC0BA0F621F731F841F48F425
:1002F000879577956795B795F7959E3F08F0B0CFAE
:100300009395880F08F09927EE0F97958795089594
:100310000E94850290F09F3748F4911116F40C94D6
:100320009E0260E070E080E89FE3089526F01B16CF
:10033000611D711D811D0C9418020C9433020E94E2
:10034000A6016894B1110C949E0208950E946B025C
:1003500088F09F5798F0B92F9927B751B0F0E1F086
:10036000660F771F881F991F1AF0BA95C9F714C036
:10037000B13091F00E949D02B1E008950C949D026D
:10038000672F782F8827B85F39F0B93FCCF386956F
:1003900077956795B395D9F73EF4909580957095CC
:1003A00061957F4F8F4F9F4F0895E89409C097FB49
:1003B0003EF490958095709561957F4F8F4F9F4F3C
:1003C0009923A9F0F92F96E9BB279395F695879580
:1003D00077956795B795F111F8CFFAF4BB0F11F443
:1003E00060FF1BC06F5F7F4F8F4F9F4F16C08823EA
:1003F00011F096E911C0772321F09EE8872F762F20
:1004000005C0662371F096E8862F70E060E02AF060
:100410009A95660F771F881FDAF7880F969587954C
:1004200097F9089597F99F6780E870E060E0089574
:10043000882371F4772321F09850872B762F07C0FB
:10044000662311F499270DC09051862B70E060E06F
:100450002AF09A95660F771F881FDAF7880F96950E
:10046000879597F908959F3F31F0915020F4879533
:1004700077956795B795880F911D9695879597F90C
:1004800008959FEF80EC089500240A94161617062D
:1004900018060906089500240A9412161306140675
:1004A00005060895092E0394000C11F4882352F0D8
:1004B000BB0F40F4BF2B11F460FF04C06F5F7F4F90
:1004C0008F4F9F4F089557FD9058440F551F59F077
:1004D0005F3F71F04795880F97FB991F61F09F3F31
:1004E00079F087950895121613061406551FF2CF5A
:1004F0004695F1DF08C0161617061806991FF1CFAA
:10050000869571056105089408950E946B02A0F01C
:10051000BEE7B91788F4BB279F3860F41616B11DE3
:10052000672F782F8827985FF7CF869577956795FF
:10053000B11D93959639C8F30895E894BB276627B3
:100540007727CB0197F908950E94B7020C945202C5
:100550000E94440238F00E944B0220F0952311F0D3
:100560000C9412020C94410211240C949E020E94DD
:10057000630270F3959FC1F3950F50E0551F629F82
:10058000F001729FBB27F00DB11D639FAA27F00DEC
:10059000B11DAA1F649F6627B00DA11D661F829F13
:1005A0002227B00DA11D621F739FB00DA11D621FF8
:1005B000839FA00D611D221F749F3327A00D611D15
:1005C000231F849F600D211D822F762F6A2F1124F7
:1005D0009F5750409AF0F1F088234AF0EE0FFF1F2A
:1005E000BB1F661F771F881F91505040A9F79E3F81
:1005F000510580F00C9412020C949E025F3FE4F3CC
:10060000983ED4F3869577956795B795F795E795D6
:100610009F5FC1F7FE2B880F911D9695879597F9DF
:100620000895FB01DC010D900020E9F7119701907E
:100630000D920020E1F70895BB274A3031F4992349
:1006400022F4BDE2909581959F4F0C942803BB271F
:10065000FB015527AA27880F991FAA1FA41710F07E
:10066000A41B83955051B9F7A05DAA3308F0A95D8A
:10067000A193009779F7B111B1931192CB010C942A
:100680004103DC01FC01672F71917723E1F7329779
:1006900004C07C916D9370836291AE17BF07C8F35D
:0606A0000895F894FFCF5D
:00000001FF
