:100000000C942A000C9434000C9434000C943400AA
:100010000C9434000C9434000C9434000C94340090
:100020000C9434000C9434000C9434000C94340080
:100030000C9434000C9434000C9434000C94340070
:100040000C9421010C9434000C9434000C94340072
:100050000C94340011241FBECFE5D8E0DEBFCDBF25
:100060000E9411010C9483010C940000959A8FE971
:1000700099E10197F1F700C0000000000000959899
:10008000089517BA979A9298C79B04C00E943600A9
:10009000C799FCCF8FEF87BB0895CF93C82F0E94DD
:1000A0004100C8BB9798929A0E94360018BACF9127
:1000B0000895CF93C82F0E944100C8BB82B38B77AD
:1000C00082BB0E94360018BACF91089581E00E9449
:1000D000590087EC99E10197F1F700C000000895FD
:1000E000EF92FF920F931F93CF93DF937C018B01CD
:1000F00016161706E4F4C0E0D0E0E114F10451F460
:1001000080E10E94590087EC90E00197F1F700C070
:10011000000009C084E10E94590087EC90E001973B
:10012000F1F700C0000021960C171D0731F70E945F
:1001300041009798929ADF91CF911F910F91FF9074
:10014000EF90089581B3846A81BB8FE59AEE0197A1
:10015000F1F700C000008CE30E94590087EC90E0AA
:100160000197F1F700C000008EE00E94590087EC73
:1001700090E00197F1F700C0000008950F931F93DE
:10018000CF93DF93EC018B0182E00E94590087EC52
:1001900099E10197F1F700C00000CE010197409767
:1001A00078F4C8010197029758F4023011050CF059
:1001B000A896BE016150710981E090E00E94700034
:1001C000DF91CF911F910F910895CF93DF93EC01B1
:1001D0008881882331F021960E944D0089918111F8
:1001E000FBCFDF91CF910895CF93DF93CDB7DEB7EB
:1001F0002F970FB6F894DEBF0FBECDBF4AE0BE0109
:100200006F5F7F4F0E944E01CE0101960E94E50074
:100210002F960FB6F894DEBF0FBECDBFDF91CF9102
:1002200008950E94A2000E94660086B1876086B988
:1002300087B1806687B986B1886886B97894369A1E
:10024000FFCF1F920F920FB60F9211242F933F935F
:100250004F935F936F937F938F939F93AF93BF93CE
:10026000EF93FF9385B190E00E94F40061E070E0AD
:1002700081E090E00E94BE00369AFF91EF91BF911D
:10028000AF919F918F917F916F915F914F913F912E
:100290002F910F900FBE0F901F901895BB274A30DB
:1002A00031F4992322F4BDE2909581959F4F0C94EF
:1002B0005A01BB27FB015527AA27880F991FAA1FA0
:1002C000A41710F0A41B83955051B9F7A05DAA3371
:1002D00008F0A95DA193009779F7B111B19311923C
:1002E000CB010C947301DC01FC01672F7191772322
:1002F000E1F7329704C07C916D9370836291AE17E1
:0A030000BF07C8F30895F894FFCF7B
:00000001FF
