S00B000050574D2E7372656325
S11300000C942A000C9434000C9434000C943400A6
S11300100C9434000C9434000C9434000C9434008C
S11300200C9434000C9434000C9434000C9434007C
S11300300C9434000C9434000C9434000C9434006C
S11300400C9434000C9434000C9434000C9434005C
S11300500C94340011241FBECFE5D8E0DEBFCDBF21
S11300600E9436000C9460000C9400008D9A8FB5A9
S1130070826C8FBD8EB58A618EBD8FE39CE997BD7E
S113008086BD86B597B5805A9F409BBD8ABD2FEF2C
S113009087EA91E6215080409040E1F700C00000DB
S11300A086B597B5805D97409BBD8ABD2FEF87EAE3
S11300B091E6215080409040E1F700C00000E1CF7C
S10700C0F894FFCFDE
S9030000FC
