S0150000414443776974686F7574496E742E7372656308
S11300000C942A000C943F000C943F000C943F0085
S11300100C943F000C943F000C943F000C943F0060
S11300200C943F000C943F000C943F000C943F0050
S11300300C943F000C943F000C943F000C943F0040
S11300400C943F000C943F000C943F000C943F0030
S11300500C943F0011241FBECFE5D8E0DEBFCDBF16
S113006010E0A0E6B0E0EEEFF2E002C005900D92E1
S1130070A636B107D9F70E9432010C947D010C9485
S11300800000959A8FE999E10197F1F700C000000B
S1130090000000009598089517BA979A9298C79B04
S11300A004C00E944100C799FCCF8FEF87BB08951D
S11300B0CF93C82F0E944C00C8BB9798929A0E9475
S11300C0410018BACF910895CF93C82F0E944C00D5
S11300D0C8BB82B38B7782BB0E94410018BACF9110
S11300E0089581E00E94640087EC99E10197F1F79B
S11300F000C000000895EF92FF920F931F93CF93D7
S1130100DF937C018B0116161706E4F4C0E0D0E0FF
S1130110E114F10451F480E10E94640087EC90E062
S11301200197F1F700C0000009C084E10E94640057
S113013087EC90E00197F1F700C0000021960C17BE
S11301401D0731F70E944C009798929ADF91CF9146
S11301501F910F91FF90EF90089581B3846A81BB42
S11301608FE59AEE0197F1F700C000008CE30E943E
S1130170640087EC90E00197F1F700C000008EE086
S11301800E94640087EC90E00197F1F700C0000042
S113019008950F931F93CF93DF93EC018B0182E0BB
S11301A00E94640087EC99E10197F1F700C0000018
S11301B0CE010197409778F4C8010197029758F44B
S11301C0023011050CF0A896BE016150710981E05E
S11301D090E00E947B00DF91CF911F910F910895D1
S11301E0CF93DF93EC018881882331F021960E941C
S11301F0580089918111FBCFDF91CF910895CF935E
S1130200DF93CDB7DEB72F970FB6F894DEBF0FBEDE
S1130210CDBF4AE0BE016F5F7F4F0E944801CE010F
S113022001960E94F0002F960FB6F894DEBF0FBE21
S1130230CDBFDF91CF91089586B1876086B93E9A8C
S11302403D98379A369A089597B1907F97B997B1A8
S1130250892B87B9369A3699FECF84B125B190E0BF
S1130260922B08950E94AD000E9471000E941C010F
S113027081E00E9424010E94FF0080E690E00E9439
S1130280F00061E070E081E090E00E94C900F0CFEE
S1130290BB274A3031F4992322F4BDE2909581952D
S11302A09F4F0C945401BB27FB015527AA27880FA5
S11302B0991FAA1FA41710F0A41B83955051B9F7D6
S11302C0A05DAA3308F0A95DA193009779F7B11155
S11302D0B1931192CB010C946D01DC01FC01672FE9
S11302E071917723E1F7329704C07C916D93708309
S11102F06291AE17BF07C8F30895F894FFCFCC
S10902FE20202020000076
S9030000FC
